{
  "contractName": "PersonFactory",
  "abi": [
    {
      "anonymous": false,
      "inputs": [
        {
          "indexed": false,
          "internalType": "uint256",
          "name": "id",
          "type": "uint256"
        },
        {
          "indexed": false,
          "internalType": "string",
          "name": "name",
          "type": "string"
        },
        {
          "indexed": false,
          "internalType": "bool",
          "name": "alive",
          "type": "bool"
        }
      ],
      "name": "NewPerson",
      "type": "event"
    },
    {
      "constant": true,
      "inputs": [
        {
          "internalType": "uint256",
          "name": "",
          "type": "uint256"
        }
      ],
      "name": "people",
      "outputs": [
        {
          "internalType": "string",
          "name": "name",
          "type": "string"
        },
        {
          "internalType": "bool",
          "name": "alive",
          "type": "bool"
        }
      ],
      "payable": false,
      "stateMutability": "view",
      "type": "function"
    },
    {
      "constant": true,
      "inputs": [
        {
          "internalType": "uint256",
          "name": "",
          "type": "uint256"
        }
      ],
      "name": "personToOwner",
      "outputs": [
        {
          "internalType": "address",
          "name": "",
          "type": "address"
        }
      ],
      "payable": false,
      "stateMutability": "view",
      "type": "function"
    },
    {
      "constant": false,
      "inputs": [
        {
          "internalType": "string",
          "name": "_name",
          "type": "string"
        }
      ],
      "name": "createPerson",
      "outputs": [],
      "payable": false,
      "stateMutability": "nonpayable",
      "type": "function"
    }
  ],
  "bytecode": "0x608060405234801561001057600080fd5b506105e5806100206000396000f3fe608060405234801561001057600080fd5b50600436106100415760003560e01c80634aebb14d1461004657806367ee206b146101015780639e7a13ad1461016f575b600080fd5b6100ff6004803603602081101561005c57600080fd5b810190808035906020019064010000000081111561007957600080fd5b82018360208201111561008b57600080fd5b803590602001918460018302840111640100000000831117156100ad57600080fd5b91908080601f016020809104026020016040519081016040528093929190818152602001838380828437600081840152601f19601f820116905080830192505050505050509192919290505050610221565b005b61012d6004803603602081101561011757600080fd5b8101908080359060200190929190505050610402565b604051808273ffffffffffffffffffffffffffffffffffffffff1673ffffffffffffffffffffffffffffffffffffffff16815260200191505060405180910390f35b61019b6004803603602081101561018557600080fd5b8101908080359060200190929190505050610435565b604051808060200183151515158152602001828103825284818151815260200191508051906020019080838360005b838110156101e55780820151818401526020810190506101ca565b50505050905090810190601f1680156102125780820380516001836020036101000a031916815260200191505b50935050505060405180910390f35b60006001600060405180604001604052808581526020016001151581525090806001815401808255809150509060018203906000526020600020906002020160009091929091909150600082015181600001908051906020019061028692919061050b565b5060208201518160010160006101000a81548160ff0219169083151502179055505050039050336001600083815260200190815260200160002060006101000a81548173ffffffffffffffffffffffffffffffffffffffff021916908373ffffffffffffffffffffffffffffffffffffffff160217905550600260003373ffffffffffffffffffffffffffffffffffffffff1673ffffffffffffffffffffffffffffffffffffffff168152602001908152602001600020600081548092919060010191905055507f2f72c1530e9e7fdd26e7b6f2d77eb716edbe21346f09a1dfb1b50de516c7e06781836001604051808481526020018060200183151515158152602001828103825284818151815260200191508051906020019080838360005b838110156103c25780820151818401526020810190506103a7565b50505050905090810190601f1680156103ef5780820380516001836020036101000a031916815260200191505b5094505050505060405180910390a15050565b60016020528060005260406000206000915054906101000a900473ffffffffffffffffffffffffffffffffffffffff1681565b6000818154811061044257fe5b9060005260206000209060020201600091509050806000018054600181600116156101000203166002900480601f0160208091040260200160405190810160405280929190818152602001828054600181600116156101000203166002900480156104ee5780601f106104c3576101008083540402835291602001916104ee565b820191906000526020600020905b8154815290600101906020018083116104d157829003601f168201915b5050505050908060010160009054906101000a900460ff16905082565b828054600181600116156101000203166002900490600052602060002090601f016020900481019282601f1061054c57805160ff191683800117855561057a565b8280016001018555821561057a579182015b8281111561057957825182559160200191906001019061055e565b5b509050610587919061058b565b5090565b6105ad91905b808211156105a9576000816000905550600101610591565b5090565b9056fea265627a7a72315820f05ca7fead0a1527657dff085ef2d54fa4f53deecdcececceddcd1d9a0159d4d64736f6c63430005100032",
  "source": "pragma solidity >=0.4.21 <0.7.0;\n\ncontract PersonFactory {\n\n  event NewPerson(uint id, string name, bool alive);\n\n  struct Person {\n    string name;\n    bool alive;\n  }\n\n  Person[] public people;\n\n  mapping (uint => address) public personToOwner;\n  mapping (address => uint) ownerPersonCount;\n\n  /**\n  Create Person, add them to mapping of personToOwner and increment ownerPersonCount\n   */\n  function createPerson (string memory _name) public {\n    // Add person to person array. Push returns number in array.\n    uint id = people.push(Person(_name, true)) -1;\n    personToOwner[id] = msg.sender;\n    ownerPersonCount[msg.sender]++;\n    emit NewPerson(id, _name, true);\n  }\n}",
  "sourcePath": "/Users/nhong/etc/risky-person-generator/contracts/person-factory.sol",
  "compiler": {
    "name": "solc",
    "version": "0.5.16+commit.9c3226ce.Emscripten.clang"
  },
  "schemaVersion": "3.4.1",
  "updatedAt": "2021-05-27T05:09:26.487Z",
  "devdoc": {
    "methods": {}
  },
  "userdoc": {
    "methods": {
      "createPerson(string)": {
        "notice": "Create Person, add them to mapping of personToOwner and increment ownerPersonCount"
      }
    }
  }
}