{
  "contractName": "PersonFactory",
  "abi": [
    {
      "anonymous": false,
      "inputs": [
        {
          "indexed": false,
          "internalType": "uint256",
          "name": "id",
          "type": "uint256"
        },
        {
          "indexed": false,
          "internalType": "string",
          "name": "name",
          "type": "string"
        },
        {
          "indexed": false,
          "internalType": "bool",
          "name": "alive",
          "type": "bool"
        }
      ],
      "name": "NewPerson",
      "type": "event"
    },
    {
      "constant": true,
      "inputs": [
        {
          "internalType": "uint256",
          "name": "",
          "type": "uint256"
        }
      ],
      "name": "people",
      "outputs": [
        {
          "internalType": "string",
          "name": "name",
          "type": "string"
        },
        {
          "internalType": "bool",
          "name": "alive",
          "type": "bool"
        }
      ],
      "payable": false,
      "stateMutability": "view",
      "type": "function"
    },
    {
      "constant": true,
      "inputs": [
        {
          "internalType": "uint256",
          "name": "",
          "type": "uint256"
        }
      ],
      "name": "personToOwner",
      "outputs": [
        {
          "internalType": "address",
          "name": "",
          "type": "address"
        }
      ],
      "payable": false,
      "stateMutability": "view",
      "type": "function"
    },
    {
      "constant": false,
      "inputs": [
        {
          "internalType": "string",
          "name": "_name",
          "type": "string"
        }
      ],
      "name": "createPerson",
      "outputs": [],
      "payable": false,
      "stateMutability": "nonpayable",
      "type": "function"
    },
    {
      "constant": true,
      "inputs": [],
      "name": "get",
      "outputs": [
        {
          "internalType": "string",
          "name": "",
          "type": "string"
        },
        {
          "internalType": "uint256",
          "name": "",
          "type": "uint256"
        }
      ],
      "payable": false,
      "stateMutability": "view",
      "type": "function"
    }
  ],
  "bytecode": "0x608060405234801561001057600080fd5b50610746806100206000396000f3fe608060405234801561001057600080fd5b506004361061004c5760003560e01c80634aebb14d1461005157806367ee206b1461010c5780636d4ce63c1461017a5780639e7a13ad14610204575b600080fd5b61010a6004803603602081101561006757600080fd5b810190808035906020019064010000000081111561008457600080fd5b82018360208201111561009657600080fd5b803590602001918460018302840111640100000000831117156100b857600080fd5b91908080601f016020809104026020016040519081016040528093929190818152602001838380828437600081840152601f19601f8201169050808301925050505050505091929192905050506102b6565b005b6101386004803603602081101561012257600080fd5b8101908080359060200190929190505050610497565b604051808273ffffffffffffffffffffffffffffffffffffffff1673ffffffffffffffffffffffffffffffffffffffff16815260200191505060405180910390f35b6101826104ca565b6040518080602001838152602001828103825284818151815260200191508051906020019080838360005b838110156101c85780820151818401526020810190506101ad565b50505050905090810190601f1680156101f55780820380516001836020036101000a031916815260200191505b50935050505060405180910390f35b6102306004803603602081101561021a57600080fd5b8101908080359060200190929190505050610596565b604051808060200183151515158152602001828103825284818151815260200191508051906020019080838360005b8381101561027a57808201518184015260208101905061025f565b50505050905090810190601f1680156102a75780820380516001836020036101000a031916815260200191505b50935050505060405180910390f35b60006001600060405180604001604052808581526020016001151581525090806001815401808255809150509060018203906000526020600020906002020160009091929091909150600082015181600001908051906020019061031b92919061066c565b5060208201518160010160006101000a81548160ff0219169083151502179055505050039050336001600083815260200190815260200160002060006101000a81548173ffffffffffffffffffffffffffffffffffffffff021916908373ffffffffffffffffffffffffffffffffffffffff160217905550600260003373ffffffffffffffffffffffffffffffffffffffff1673ffffffffffffffffffffffffffffffffffffffff168152602001908152602001600020600081548092919060010191905055507f2f72c1530e9e7fdd26e7b6f2d77eb716edbe21346f09a1dfb1b50de516c7e06781836001604051808481526020018060200183151515158152602001828103825284818151815260200191508051906020019080838360005b8381101561045757808201518184015260208101905061043c565b50505050905090810190601f1680156104845780820380516001836020036101000a031916815260200191505b5094505050505060405180910390a15050565b60016020528060005260406000206000915054906101000a900473ffffffffffffffffffffffffffffffffffffffff1681565b60606000806000815481106104db57fe5b9060005260206000209060020201600001600080549050818054600181600116156101000203166002900480601f0160208091040260200160405190810160405280929190818152602001828054600181600116156101000203166002900480156105875780601f1061055c57610100808354040283529160200191610587565b820191906000526020600020905b81548152906001019060200180831161056a57829003601f168201915b50505050509150915091509091565b600081815481106105a357fe5b9060005260206000209060020201600091509050806000018054600181600116156101000203166002900480601f01602080910402602001604051908101604052809291908181526020018280546001816001161561010002031660029004801561064f5780601f106106245761010080835404028352916020019161064f565b820191906000526020600020905b81548152906001019060200180831161063257829003601f168201915b5050505050908060010160009054906101000a900460ff16905082565b828054600181600116156101000203166002900490600052602060002090601f016020900481019282601f106106ad57805160ff19168380011785556106db565b828001600101855582156106db579182015b828111156106da5782518255916020019190600101906106bf565b5b5090506106e891906106ec565b5090565b61070e91905b8082111561070a5760008160009055506001016106f2565b5090565b9056fea265627a7a72315820887357cbd8e6aae97adc2b62d1bfa7acb891a396ef137c335686e8a8a83aa7e864736f6c63430005100032",
  "source": "pragma solidity >=0.4.21 <0.7.0;\n\ncontract PersonFactory {\n\n  event NewPerson(uint id, string name, bool alive);\n\n  struct Person {\n    string name;\n    bool alive;\n  }\n\n  Person[] public people;\n\n  mapping (uint => address) public personToOwner;\n  mapping (address => uint) ownerPersonCount;\n\n  /**\n  Create Person, add them to mapping of personToOwner and increment ownerPersonCount\n   */\n  function createPerson (string memory _name) public {\n    // Add person to person array. Push returns number in array.\n    uint id = people.push(Person(_name, true)) -1;\n    personToOwner[id] = msg.sender;\n    ownerPersonCount[msg.sender]++;\n    emit NewPerson(id, _name, true);\n  }\n\n  function get () public view returns (string memory, uint) {\n    return (people[0].name, people.length);\n  }\n}",
  "sourcePath": "/Users/nhong/etc/risky-person-generator/contracts/PersonFactory.sol",
  "compiler": {
    "name": "solc",
    "version": "0.5.16+commit.9c3226ce.Emscripten.clang"
  },
  "schemaVersion": "3.4.1",
  "updatedAt": "2021-05-30T21:51:32.163Z",
  "networkType": "ethereum",
  "devdoc": {
    "methods": {}
  },
  "userdoc": {
    "methods": {
      "createPerson(string)": {
        "notice": "Create Person, add them to mapping of personToOwner and increment ownerPersonCount"
      }
    }
  }
}